:020000022000DC
:1060000000000420756302005D6302005F6302000C
:106010006163020063630200656302000000000028
:1060200000000000000000000000000067630200A4
:1060300069630200000000006B6302006D630200F0
:10604000798602006F630200018B02000583020063
:106050006F6302006F630200558902006F630200E4
:106060006F6302006F6302006F6302006F630200E0
:106070006F6302006F6302006F6302006F630200D0
:106080006F630200D96E02006F6302006F6302004B
:10609000756F02006F630200A1AB02006F63020024
:1060A0006F6302006F6302006F6302006F630200A0
:1060B0006F6302006F630200000000000000000038
:1060C0006F6302006F6302006F6302006F63020080
:1060D0006F6302006F6302006F6302006F63020070
:1060E0006F6302006F6302006F6302000000000034
:1060F000000000006F630200000000006F630200F8
:10610000000000000000000000000000000000008F
:10611000000000000000000000000000000000007F
:10612000000000000000000000000000000000006F
:10613000000000000000000000000000000000005F
:10614000000000000000000000000000000000004F
:10615000000000000000000000000000000000003F
:10616000000000000000000000000000000000002F
:10617000000000000000000000000000000000001F
:10618000000000000000000000000000000000000F
:1061900000000000000000000000000000000000FF
:1061A00000000000000000000000000000000000EF
:1061B00000000000000000000000000000000000DF
:1061C00000000000000000000000000000000000CF
:1061D00000000000000000000000000000000000BF
:1061E00000000000000000000000000000000000AF
:1061F000000000000000000000000000000000009F
:10620000354936480A1A02D0072291438D4634494F
:1062100034480A1A06D00722914381F309880222E2
:1062200082F3148830483149314A00F044F831484B
:106230003149324A00F03FF831483249324A00F0E1
:106240003AF832483249334A00F035F83248334997
:10625000334A00F030F833483349344A00F02BF821
:1062600033483449344A00F026F83448344900228F
:1062700000F02CF833483449002200F027F8334866
:106280003349091A082902DB002202604160314AC1
:1062900090471F481F49884205D00268043003B464
:1062A000904703BCF7E700208646EC46002000211B
:1062B000294A9047FEE7884207D0521A05D0037852
:1062C00001300B700131013AF9D17047884202D098
:1062D00002700130FAE770470000042000E003205C
:1062E0000000042000000420803D0300E022002084
:1062F000045B0020D4630200D4630200A01A0300F0
:10630000803D0300E0220020E0220020741B0300F7
:10631000741B0300741B0300741B0300741B030035
:10632000741B0300741B0300741B0300803D0300F7
:10633000A4750300045B0020045B0020045B0020C4
:10634000BC7B0020BC7B0020C07B0020C07B0020E9
:10635000C09B00209D630200159A0200FEE7FEE745
:10636000FEE7FEE7FEE7FEE7FEE7FEE7FEE7FEE705
:10637000704700BF1048804710484FF0070188431E
:1063800085460F4880470F48016841F4700101605D
:10639000BFF34F8FBFF36F8FFFF732BF0A480B4930
:1063A0000B4A884207D0521A05D0037801300B708F
:1063B0000131013AF9D170477163020000000420F5
:1063C000F17A020088ED00E0741B0300E022002057
:0463D000E0220020A7
:1063D40000487047B47B0020F0B595B01C461646C3
:1063E40008460D4601F0ECFA1A9B0D93CDE90864BA
:1063F40000242346082205A928460A948DF82C4037
:106404000C9401F0FAFA079B0293069B03939DF800
:1064140014308DF8114003F00302012A1DD1BDF898
:106424001440059EC3F3C203C4F383148DF81030E3
:10643400A20008230EA9284601F0DFFAC6F3952628
:1064440008AB0093224602AB0EA9304600F0D6FBFF
:10645400284601F0B9FA15B0F0BD022AF8D1BDF80A
:106464001640C3F3C203A4098DF810300827082C82
:10647400264628BF08263B4632460EA9284601F088
:10648400BCFAA41B08AB02AA31460EA8374400F09C
:1064940019FC002CEBD1DBE7014B01221A70704789
:1064A400455B00207047000070B50E4D06460FCDC9
:1064B40088B06C460FC495E80F00002E84E80F00E6
:1064C4004FF00603084A0948009308BF00226946B2
:1064D40001F0A8FC08B100F04FFC054B1E7008B099
:1064E40070BD00BF741B03009D640200E022002005
:1064F400045B002007B5044B0093044A4023FFF7D4
:106504006BFF03B05DF804FB15650200055B00201A
:1065140038B50D4B0D4D002018700D4804782D5DD5
:10652400D2B21C4665B1043002F04AFF08B100F053
:1065340023FC084B1A7812B12378002BFBD038BD0A
:106544000C3002F025FDF1E7455B002038620020A5
:10655400E0220020045B002008B50848084A0378BC
:10656400D35C3BB1043002F0D5FE0020BDE8084006
:10657400FFF79ABF0C3002F0B5FCF6E7E0220020EA
:10658400386200200120FFF78FBF000008B5FFF735
:10659400F9FF0421034800F09FFA034B01225A71CA
:1065A40008BD00BF641B0300F4220020037813F02D
:1065B400040216D003F00303012B03D0022B09D0ED
:1065C400012070470A6800880232C0F38310024435
:1065D4000A60F5E70B684288023303EB92130B6001
:1065E400EEE71046704700002DE9F04F87B0002316
:1065F4000446851C0DF107000F4690468DF80730C0
:1066040000F0A8FE454806683E60D0E90132134414
:1066140001339B1B824600F21C4600F5836900F29D
:106624001447AB421BD30022B8F1000F70D00523EE
:1066340063F3070264F38912DAF80010DAF8083019
:106644009DF807000B4003330D444AF82320CAF891
:10665400005000F0A3FE012007B0BDE8F08F012137
:10666400304600F0F8FE484600F00BFF384600F0D4
:1066740008FFDAF80400DAF808B0029000EA0B0028
:1066840003300AEB800002A9FFF790FF029B50BB86
:106694000BEA03020AEB820203F1020CD2680392B2
:1066A400013303EA0B0B0AEB8B0B02F00302012A02
:1066B400CDF808C0DBF80C1022D0022A16D083468D
:1066C400384600F0E1FE10B1029BCAF80430594686
:1066D400304600F0C0FEDAE901231344DAF8002062
:1066E40001339B1A9DE70BEA0300C9E7BDF80E309E
:1066F4009B0903334FEA114B0CEB93030293DFE73F
:10670400BDF80C30C3F383134FEA114B6344F5E730
:10671400062363F3070264F39F528DE7185C00209D
:106724000B4B0C48FF2210B59A600022C3F81824C2
:10673400C3E90022C3F8142483F8202401F0F9F8F3
:10674400044610B9044801F079F9204610BD00BF91
:10675400185C0020E81A0300B41B030030B50A4C8F
:1067640071B10A4A0A49121BD20800239A4201D184
:10677400002030BD31F82350854202D00133F5E7C3
:10678400034654F83300F4E7FC1A0300641B0300C7
:10679400E0220020094B013903EBC000032909D88A
:1067A400DFE801F00A02040604207047007970470C
:1067B400407970470020704702207047FC1A03009C
:1067C400034BD3E90030C31A58425841704700BF05
:1067D400185C00202DE9F04387B0FFF7F1FF06466F
:1067E400002840F0FB807E4DC5F81804BFF34F8F9E
:1067F4006868AC6802902040033005EB800002A971
:10680400FFF7D4FE029B18B1D5F81824002A5FD0F4
:1068140004EA0302991C013305EB8202234005EBD1
:106824008303D268DB68049302F00303022B039210
:10683400029162D1BDF80E306A484FEA9318B8F15C
:10684400500FC14628BF4FF0500969F38F1309F167
:106854000801ADF80E3001F084F80746002800F076
:10686400A88001F0ADF803A900230822384601F0FE
:10687400BAF8029924EA01060136B600B14535D9C1
:106884005FFA89F97EB3F6B2A9EB06092140033118
:106894005FFA89F4B146544E05EB810108234A4658
:1068A400384601F0A0F836B109F108032246314612
:1068B400384601F098F8029B08F1030803EB9803AB
:1068C4000293D5F81834002B4BD1D5F810445BE073
:1068D4002A689A4204D86A60304607B0BDE8F0835B
:1068E40004EA030088E740493446D7E721400331EE
:1068F40008234A4605EB8101DAE7012B59D1BDF89B
:106904000C303848C3F38311062928BF062161F3EC
:10691400891302318900ADF80C3001F022F80746E2
:10692400002846D001F04CF80023082203A9384679
:1069340001F059F80026BDF80C20C2F38312B3000D
:10694400964203F10803BCD202994A1C2140033148
:10695400029205EB81010422384601F044F8013625
:10696400E9E7384601F030F8FFF72AFF80F001002C
:10697400C6B2B1E7E3685B7923B1236839461B6883
:1069840020469847E3681C68002CF3D1384601F090
:106994001BF80DF107008DF8074000F0DBFCD5F87B
:1069A40018340BB9029B6B609DF8070000F0F6FCED
:1069B400DAE7D5F8104454B90C4B0D480D49C01A08
:1069C400C008000440F0020000F06EF8CCE7236831
:1069D40020469B689847E3681C68ECE700267BE741
:1069E400185C0020E81A0300245C0020FC1A030051
:1069F4002C1B0300C01B03002DE9F74F284C8046D5
:106A04000F46924601A9012218469B46D4F80890E5
:106A1400FFF7EAFD80B3019D0026A91C5E4506EB45
:106A2400010233D100211F4800F0EAFC80F310007A
:106A34006A1C02EA090204EB8202000405EA090363
:106A4400033340EA1840D06014F8232068F3C502E9
:106A540004F8232034F8232066F3891224F8232031
:106A640054F8232067F39F2244F8232002F0F8020D
:106A740042F0010204F8232094F820341BB1FFF7FC
:106A8400A9FE0028FBD103B0BDE8F08F09EA020299
:106A940004EB82025AF82630D3600136BEE700BF09
:106AA400185C00203460002000231A46FFF7A4BFBE
:106AB40007B50123019201AAFFF79EFF03B05DF819
:106AC40004FB07B5CDE9002302236A46FFF794FFD0
:106AD40003B05DF804FB000030B50F49D1F8102471
:106AE400002314463CB9C468237152B9C1F8100498
:106AF4002260184630BDE46825799D4206D024689A
:106B0400F0E7D268116821601060F2E701330A2BC4
:106B1400E7D14FF0FF33ECE7185C0020094A38B5A1
:106B24000123D2F8104482F820341D4604B938BD3C
:106B3400E3685D71236820465B689847E3681C68D6
:106B4400F4E700BF185C0020037A052B10B50C464F
:106B54000FD0437A23B1084A0849204600F0F7FCD5
:106B64000749204600F0F3FC2046BDE8104000F041
:106B7400E3BC002AF8D0F3E70B1C03003F24030016
:106B84002D1C0300C38873B504460D4633B1144A63
:106B940000921449144A284600F0D9FC217A0529A8
:106BA4001CD0637A4BB1A088FFF7F4FD0F4B10495A
:106BB40053F82020284600F0CAFC227A0D4BA08806
:106BC40053F822600021FFF7C9FD0B490346324602
:106BD400284602B0BDE8704000F0B9BC02B070BDF8
:106BE4000B1C0300181C0300101C0300D81B03001B
:106BF4003F2403003C1C0300301C03002DE9F04338
:106C040085B01F460C9D002306460C46904695F819
:106C14000C902B7329463846FFF7B4FFB8F1060FE2
:106C240009D8DFE808F00412181F28334000314661
:106C3400284600F08CFC002229463846FFF784FFE2
:106C440085F80C9005B0BDE8F083226831462846EB
:106C540000F07DFCEFE7D4E900233146284600F03C
:106C640076FCE8E7A36800933146D4E9002328467C
:106C740000F06DFCDFE7E3680193A36800933146FD
:106C8400D4E90023284600F062FCD4E72369029388
:106C9400E3680193A36800933146D4E900232846AE
:106CA40000F055FCC7E76369039323690293E36823
:106CB4000193A36800933146D4E90023284600F0E9
:106CC40046FCB8E708292DE9F84F80460E461746DA
:106CD4001C463AD8002593F80C901D7319461046AB
:106CE400FFF750FFDFF884A0DFF884B0AE422ED95E
:106CF40018F805205946204600F029FC0135082DD6
:106D0400F4D11849DFF86CB0204600F020FC4FF0B5
:106D1400000A564520D918F80A507E2D03D8284673
:106D24000AF0EEF900B92E252A465946204600F00D
:106D34000EFC0AF1010ABAF1080FEAD10122214638
:106D44003846FFF701FF84F80C90BDE8F88F5146F0
:106D5400204600F0FCFBD1E70349204600F0F7FB96
:106D6400E7E700BF061C0300041C0300021C030029
:106D7400FC1B0300081C03001FB50021039001AA9B
:106D840044F20100CDE9011100F004F805B05DF80A
:106D940004FB000010B572B6FFF7C0FEFFF71AFD42
:106DA4000028FBD1104B114C1149E41AE4082404C7
:106DB40044F00100FFF778FE0E4B1B68DB0700D59B
:106DC40000BE0D4944F00200FFF76EFEBFF34F8F83
:106DD4000A490B4BCA6802F4E0621343CB60BFF369
:106DE4004F8F00BFFDE700BFFC1A03002C1B0300FC
:106DF4009B1C0300F0ED00E0A71C030000ED00E085
:106E04000400FA05094A537891780133DBB29942B8
:106E140008BF0023117899421FBF037050781823CC
:106E240003FB002014BF043000207047D46000200E
:106E340073B5054600240DF107000E468DF8074092
:106E440000F088FA0DF10600FFF7DCFF90B1067040
:106E5400094B9DF8062045605A709DF8070000F024
:106E64009DFA24B9054B4FF48012C3F80021204643
:106E740002B070BD0424F0E7D460002000E100E01B
:106E8400024B4FF43C6043F001031847C01C03005D
:106E940038B50C4B0C4C4FF40032C3F8802001255C
:106EA4004FF48033C4F84833C4F808336560FFF7FF
:106EB400E7FF064BA56000241C60FFF7E1FF044BCD
:106EC4001C7038BD00E100E000100140F0610020BA
:106ED400E1610020F8B51F4B1F491B680025C1F86C
:106EE4004051C1F84451C1F84851C1F84C51C1F85E
:106EF4000051C1F804514BB3D1F80445174909684E
:106F0400641A24F07F442F461A68A24209D8A41AAE
:106F140015441A7CDE691AB11F74D3E90520904721
:106F2400AEB90F4A0F4B11781B788B4205D1013350
:106F3400DBB2022B08BF0023137012780A4B43F80C
:106F440022500A4B4FF48012C3F80021F8BD334697
:106F5400DAE700BFF461002000100140F061002076
:106F6400ED610020EC610020E461002000E100E01C
:106F74002DE9F04FA04AA14913780978A04D994210
:106F840085B03CD00133DBB2022B08BF0023137061
:106F94009C4912789C4B0F6853F822003B1823F04D
:106FA4007F4300220B602B6816461446944613B99F
:106FB40042B12B6006E0196881420ED902B12B6000
:106FC400091A19604FF001082B68DFF844A20193F5
:106FD4000027BEB9DFF840B266E0401A0C44D96815
:106FE400C3F800C0D3F81CE031B13A1922F07F4253
:106FF400C3E90121DE611E4601227346D7E700265C
:10700400B046E1E73446F6697E4A63681268DFF801
:107014000CC2A068991A21F07F41614500F2A58055
:1070240001442160012222742A680023C4E9013347
:10703400E361002A40F0A2802C60CAE75A1C9BF846
:107044000210D2B291428BF8002004BF00228BF8C8
:107054000020182202FB03B31A799C68022A1CD070
:10706400032A12D0012A1FD1207CE8B9D3E90312E4
:10707400A2605A69E2609A69644BA2611B78002B92
:107084000CBF0B4603466360BEE700222B68114623
:10709400002B66D142B12B6006E029680A46894676
:1070A400002A59D1002323749BF800309BF8012057
:1070B4009A42C3D12B682FB9019A9A4202D1B8F1EE
:1070C400000F43D0002B73D0D3F800A0504D4D4B8C
:1070D400D5F804751C68DFF848813E1B98F8003029
:1070E40026F07F4603369BB94FF48033C5F844330A
:1070F400C5F80433474B4FF400324FF00109C3F88D
:1071040080211A60C5F80090FFF7BAFE88F8009055
:10711400B2452CBF5444A41924F07F44C5F840451B
:10712400D5F80435DB1B23F07F43E41B033324F041
:107134007F44A3420AD9D5F80435C5F84035FFF792
:107144009FFE344B4FF40032C3F800212F4B002232
:107154001A7005B0BDE8F08F94422CD09146D269E4
:107164009EE719740122DB6992E7D31A23F07F4367
:10717400834234BFC31A0023236053E72168136892
:10718400994213D8591A1160E26155E7091AD8696E
:107194001A4638B1034618688842F7D3401A186073
:1071A400184613462160E061DC6112E71346F2E7FA
:1071B400FFF76EFECAE74C4511D1CB692B6073B95A
:1071C400DFF840E00120CDE90212CAF80800CEF849
:1071D40000300E4B1870FFF753FEDDE902121368FE
:1071E400D269C9F81C2012B11068034413602B68DB
:1071F400994218BF012755E7EC610020ED6100209A
:10720400F4610020F0610020E4610020E0610020CE
:107214000010014000E100E0D4600020FEFF7F0088
:10722400E161002008B5FFF733FE104B00200B226C
:1072340018809A700E4B18600E4B18700E4B187015
:107244000E4B4FF48012C021C3F8802183F814132D
:107254001A6002F18042A2F56F22C2F8080583F891
:107264001113074BD2F804251A6008BDD46000201E
:10727400F4610020EC610020ED61002000E100E0F9
:10728400F0610020074B9B784BB132B128B1036801
:10729400187C20B959745A61704707207047082038
:1072A400704700BFD46000202DE9F7431E4FBB7820
:1072B40005460E469046A3B398B304292FD94369D3
:1072C4007BB3437C0024012B0DF107000CBF8946DE
:1072D400A1468DF8074000F03DF80DF10600FFF7D8
:1072E40091FDD0B101230370104B4560D3F80435F0
:1072F400C0E90498C0E902369DF806307B709DF819
:10730400070000F04BF824B9094B4FF48012C3F87E
:107314000021204603B0BDE8F0830424EFE70724EE
:10732400F7E70824F5E700BFD4600020001001400F
:1073340000E100E0064A92783AB130B1426922B1E4
:10734400002202740221FFF773BD0820704700BFBA
:10735400D460002070B5EFF3108672B60C4A9468BE
:1073640001239CB993600B4B0B4DD3F8801029403B
:107374001160C3F88050D3F8841051604FF0FF328D
:10738400C3F88420047006B962B670BD0370FAE7CE
:10739400F861002000E100E0FC06FFBD084B9A689C
:1073A40010B55AB150B9EFF3108172B6054A1C6892
:1073B40014605C685460986001B962B610BD00BF87
:1073C400F861002000E100E001F01F024B090121F7
:1073D400914000EB830000F01DB801F01F0301226F
:1073E4009A404B0900EB8300D14300F029B84B09C4
:1073F40001F01F0150F82300C84000F0010070475D
:1074040050E8002F0B4640E8003C9CF0000FF7D1F9
:107414001046704750E8003F43EA010240E8002C60
:107424009CF0000FF6D11046704750E8002F02EA96
:10743400010340E8003C9CF0000FF6D11046704771
:1074440050E8003F03EA010240E8002C9CF0000FE2
:10745400F6D11046704750E8003F03EB010240E8C4
:10746400002C9CF0000FF6D11046704750E8003F06
:10747400A3EB010240E8002C9CF0000FF6D110466B
:1074840070470121FFF7C6BF0021FFF7CEBF10B53B
:1074940090B1D0E9012301689B1ADBB20A60013B79
:1074A400DBB2FF2B026802D10020107110BD1168FD
:1074B4004C1C14600B70F2E70E20F7E737B5054655
:1074C40000240DF107008DF80740FFF743FF2A68F9
:1074D4006B68116899420ED9481E106011F8014C6E
:1074E400EB68298A01FB0434AB6811791B1ADBB2FF
:1074F400994238BF13719DF80700FFF74FFF2046EC
:1075040003B030BD37B5054600230DF107000C4626
:107514008DF80730FFF71EFF2A681368591C1160A5
:10752400E968641A298AB4FBF1F41C709DF8070019
:10753400FFF734FF03B030BD826810B504462AB1AA
:1075440043690168006998470023A36010BD0EB425
:1075540003B5039921B104AB01AA019300F06CF8BF
:1075640002B05DF804EB03B07047826830B404687D
:10757400551C8560A154D0E901329A4202D330BC33
:10758400FFF7DABF30BC70472DE9F84F9946DDE9C3
:107594000A431746824688460A460126BA420FD253
:1075A4004E4538BF4E4613F0010B01D164B9002497
:1075B4000125B9F1010F1AD909F1FF397D43F8E723
:1075C400B2FBF7F20136E9E79B070ED5B9F1000FDC
:1075D4000CBF30252025A642EAD2013C294650465C
:1075E400FFF7C3FF002CF6D1E1E72025F3E7B8FB52
:1075F400F5F39F42E2D9DFF83C90B8FBF5F350462F
:1076040019F8031005FB1388FFF7AFFFB5FBF7F379
:10761400BD4207D2BBF1000F02D00CB1A64203D386
:10762400BDE8F88F1D46E8E720215046013CFFF7EE
:107634009CFFF2E7C61C03002DE9F74F05461746E9
:107644008846002900F0318118F8011B49B92B7BC9
:10765400002B00F02A81284603B0BDE8F04FFFF765
:107664006BBF252940F0C080002698F800302D2BF0
:10767400424608F1010823D0302B24D02B2B25D0EF
:1076840000242A2B02F1010123D13B681A1D1B6837
:107694003A601C440A4613782E2B26D101324FF04F
:1076A400000A104610F8011BA1F1300CBCF1090FBF
:1076B4001DD80A2303FB0A13A3F1300A0246F0E79C
:1076C40046F00106D1E746F00206CEE746F004068E
:1076D400CBE711F8013CA3F130000928DBD80A22DA
:1076E40002FB0434303C0A46CBE74FF0000A12F8A0
:1076F400011B01F0FB0068289046F8D069290ED0E0
:107704004AD8582964D006D825296DD098F8003075
:10771400002B99D19BE7632962D06429F6D13A689A
:10772400D2F80090111D89EAE9723960A2EBE9727E
:107734004FF0010B092A5BDCD34538BFD3462CB18B
:10774400B9F1000F01DB710700D5013CB20702D586
:10775400BAF1000F04D0F30702D4002C4ED1002458
:10776400B9F1000F52DAC9F100092D212846FFF7BB
:10777400FCFE06F00302022A05D1BAF1000F02D181
:10778400002C47D10024CDE9004653460A2249463D
:107794002846FFF7F9FEB9E773294CD014D87029AD
:1077A400B4D13B681A1D3A60302128461C68FFF7A3
:1077B400DCFE78212846FFF7D8FE00220823CDE915
:1077C400003221461022E3E775292BD078299DD178
:1077D40039680A1D3A60CDE900465346102228E074
:1077E4003B681A1D19783A602846FFF7BEFE8DE7FC
:1077F4000A230BF1010BB2FBF3F29BE7A345AFD2D3
:1078040020212846013CFFF7B0FEA6E77007B0D55B
:107814002B21ABE7A345B6D230212846013CFFF724
:10782400A4FEADE73968CDE900460A1D3A60534627
:107834000A220968ACE73B681A1D3A60F107D3F8DD
:10784400009020D4B9F1000F25D0484609F04FFD2F
:107854000646B44200D9C4B909F1FF3920E02846EC
:107864000136FFF782FE19F806100029F7D1A64267
:10787400BFF44CAF002C3FF449AF20212846013C13
:10788400FFF773FEF3E70026EDE720212846013CCD
:10789400FFF76BFEDDE74E46DBE72846FFF765FEA4
:1078A40019F8011F0029F8D130E703B0BDE8F08FC3
:1078B4002DE9F047B0F806904479D2F800A09DF87D
:1078C400208009FB04F4043C06460AEB0300A042B2
:1078D4000F4688BFA4EB030A191DC2F800A0B1FB30
:1078E400F9F509FB15114DB9A9EB0104544528BF5D
:1078F4005446BAF1000F04D1BDE8F0873668013D63
:10790400F1E704317B1970182246B8F1000F0ED04C
:1079140001461846AAEB040A09F08DFCD14525441A
:1079240036684C464FF0000128BF5446E1E719463B
:10793400F0E7FFF7ACBDF8B546790146721E05467F
:10794400002393422D6803D30024A64202D8F8BD35
:107954000133F6E70F682846FFF7D4FD01343946B2
:10796400F3E72DE9F843068ACD1C0746FFF7A6FD89
:10797400043E35440446B5FBF6F5F0B14FF480738C
:10798400EDB28380C680013D076081464FF0000858
:10799400A84512D23846FFF791FD064648B16379EF
:1079A4000133637108F10108C9F8000007608146DA
:1079B400EEE72046FFF7BFFF34462046BDE8F883D4
:1079C40001210430FFF747BD10B5012104460430FE
:1079D400FFF74CFD10F0FF0F04D12046BDE8104026
:1079E400FFF7A9BF10BD1FB503920022009203AA9E
:1079F400FFF75EFF05B05DF804FB1FB5039201229B
:107A0400009203AAFFF754FF05B05DF804FB0000E1
:107A1400064B10B500241C70054B1C60BFF35F8F30
:107A24000449054800F013F8204610BD0C620020FC
:107A340010620020D81C0300046200208368002226
:107A44005A609A60C3E90422DA601A6070470B68CE
:107A54004A684360934208BF0023016008BF436043
:107A64007047436843B10268916852680B4493427B
:107A7400436004BF002343607047000010B50D4904
:107A8400A1F59472914201D800200FE08B1ADB100B
:107A940003EBD3735B1002EBC30452F8333083421D
:107AA40005D802D204F10802ECE7606810BD214653
:107AB400E8E700BF281E030008B5FFF7DFFF024B0D
:107AC400002808BF184608BDED1C0300054B1B68C1
:107AD400082B01BF044B1868B0FA80F0400918BFA6
:107AE40000207047300100103401001008B54FF039
:107AF40080430022C3F80C21C3F81021C3F83825B1
:107B04004FF0805203F54043D2F80414C3F8201513
:107B1400D2F80814C3F82415D2F80C14C3F82815A5
:107B2400D2F81014C3F82C15D2F81414C3F8301575
:107B3400D2F81814C3F83415D2F81C14C3F840153D
:107B4400D2F82014C3F84415D2F82414C3F8481505
:107B5400D2F82814C3F84C15D2F82C14C3F85015D5
:107B6400D2F83014C3F85415D2F83414C3F860159D
:107B7400D2F83814C3F86415D2F83C14C3F8681565
:107B8400D2F84014C3F86C15D2F84424C3F8702515
:107B9400FFF79CFF10B1384B384A1A60FFF796FF85
:107BA40018B1374BFB22C3F81825FFF78FFF48B1F4
:107BB4003449354B0A681B6822F00F0203F00F03A7
:107BC40013430B60FFF782FF18B1304B4FF4007280
:107BD4001A604FF08043D3F80024D20744BF6FF0FB
:107BE4000102C3F800242A4AD2F8883043F470030F
:107BF400C2F88830BFF34F8FBFF36F8F4FF010235D
:107C0400D3F80022002A03DBD3F80432002B2FDA46
:107C1400204B0122C3F80425D3F80024002AFBD00A
:107C24004FF010221221C2F80012D3F80024002AC7
:107C3400FBD04FF010231222C3F80422154B1A462E
:107C4400D3F800140029FBD00021C3F80415D2F89E
:107C54000034002BFBD0BFF34F8F0D490E4BCA6885
:107C640002F4E0621343CB60BFF34F8F00BFFDE724
:107C74000A4B0B4A1A6008BD8C5600404881030029
:107C840000F00040E40E004058020010409602400C
:107C940000ED00E000E001400400FA05FC220020B1
:107CA4000090D00338B5074C051E04F1080318BF33
:107CB4001C4623682BB11A6822605B6828469847E3
:107CC400F7E738BD1C62002020B9054B01225A7029
:107CD400FFF7E8BF012802D1014A9070F8E7704726
:107CE4001462002020B9034B01225A70FFF7DABF57
:107CF400704700BF1462002038B50B4C237883B959
:107D04000A486360A3602361E36000F089FC0546D0
:107D140002F02AFF08B900F08FFC012323702846E3
:107D240038BD8525FBE700BF14620020CD7C02002E
:107D340037B50B4C00230DF107008DF80730FFF722
:107D440009FBE368013BE360E56815B900F086FCD4
:107D5400A5709DF80700FFF721FB03B030BD00BFFD
:107D640014620020012813B509D018B103281CD0CF
:107D740002B010BD0F4B0122C3F88020F8E70E4C6F
:107D840000230DF107008DF80730FFF7E3FA23789D
:107D94000BB9FFF7B1FFE3689DF807000133E36017
:107DA4000123A370FFF7FAFAE2E700F045FCFFF7BE
:107DB400BFFFDDE700E100E0146200201FB5037897
:107DC4008DF800304368019383688DF80830C368E8
:107DD4000393054A054B684653F8213052F82110A5
:107DE400984705B05DF804FB28620020306200204B
:107DF4001FB503788DF800304368019383688DF8CC
:107E04000830C3680393054A054B684653F821308C
:107E140052F82110984705B05DF804FB2862002051
:107E240030620020F0B5194B0678DFF870E043F8B3
:107E34002620174B94460A6943F826204B7F0EF8F8
:107E440006300C4607460FCC89B06D460FC594E842
:107E54000F0085E80F001EF80630049653B1BCF1FC
:107E6400000F0C4A694608BF0022381D01F076F95C
:107E740009B0F0BDBCF1000F074A694608BF0022F3
:107E840007F10C0000F05AFFF2E700BF3062002057
:107E940028620020C17D0200F57D020038620020C6
:107EA4001FB503788DF800308388ADF804308368FB
:107EB4008DF80630C3688DF807300369029343696F
:107EC4000393054A054B684653F8213052F82110B4
:107ED400984705B05DF804FB3C6200204462002032
:107EE400024B4FF4807043F001031847F021030064
:107EF4001F2886BF00F01F00044A4FF0A042012350
:107F040003FA00F0C2F80805704700BF00030050F0
:107F14002DE9F047904606783A4A42F826803A4AD4
:107F240042F826304B7B07460C46A3B30868DFF8BB
:107F3400E0904FF0A04100F5E07340F20C6241F88C
:107F44002320636803F5E073002541F82320FFF73D
:107F5400CFFF6068FFF7CCFF236803F5E07340F2BE
:107F64000D6241F82320636803F5E0734FF0010AC2
:107F740041F82320FFF7B4FF63681F2B8ABF4A46EA
:107F84004FF0A04203F01F03D2F8102522FA03F3A6
:107F9400DB070DD515BBB8F1000F33461B4A21464C
:107FA40007F1040008BF0022BDE8F04700F008BA5A
:107FB40023681F2B86BF03F01F034A464FF0A042DD
:107FC4000AFA03F3C2F80C35FFF78AFF013520687B
:107FD400FFF78EFFFFF784FF092DCDD163681F2BB8
:107FE40086BF03F01F030A494FF0A041012202FAA1
:107FF40003F3C1F80C35FFF773FF6068FFF778FFF0
:10800400C9E700BF446200203C620020A57E020054
:10801400000300500023435082B043580193019B56
:1080240002B070472DE9F0470D78089E9DF824A012
:1080340004460F469946002D5ED1D0F82431D2F87B
:1080440000803BB14FF49271FFF7E4FF01236361B9
:108054003B7017E0D0F81C3153B34FF48E71FFF727
:10806400D9FFD0F824311BB14FF492712046EBE7CD
:1080740013689E4212D919F80330C0F81C351368EE
:1080840001331360B04535D1D4F8043193B34FF4C0
:1080940082712046FFF7BEFF002504E00123BAF1F8
:1080A400000F03D0C3612846BDE8F0874361E9E7C8
:1080B400D0F80831002BE5D04FF48471FFF7AAFF04
:1080C400D0F82431002BCFD113689E42DAD9D0F8EE
:1080D400181509F80310136801331360721E9342D4
:1080E40005D10223C0F8003201232362CAE79E426D
:1080F400FAD1C7E70125D6E74FF49271FFF78AFF5B
:108104004FF48E71FFF786FF4FF48471FFF782FFFF
:10811400BAE700002DE9FF470C4605461F462046F6
:108124003B4B03934FF4827116469DF83080FFF762
:1081340071FF4FF49271FFF76DFF4FF48E71FFF7EB
:1081440069FF4FF48471FFF765FF0023C4F8003220
:108154006B6385F82E3001232362A3606A6B974218
:108164001DD9B35CC4F81C356B6B01336B632B688E
:10817400E3B905F1340A05F12E09039B002B1FDC3A
:1081840095F82E3053BB0020039B002B15DC0023F5
:10819400C4F800350523C4F8003503200DE0B8F118
:1081A400000F01D0E361E2E76361E0E740F2862378
:1081B400AB60AB68C4F80433002004B0BDE8F087BA
:1081C400CDE900783346524649462046FFF72AFF58
:1081D4000028D5D0039B013B0393CEE7D4F8C434E5
:1081E400C4F8C434002BCED013F0010F14BF4FF4E5
:1081F4000240032048F2012213F0020F18BF104678
:1082040013F0040F48F2022318BF1846BCE700BF5E
:10821400A08601002DE9FF470C4605461E46204670
:10822400364B03934FF482719146FFF7F3FE4FF4FC
:108234009271FFF7EFFE4FF48E71FFF7EBFE4FF4F0
:108244008471FFF7E7FE0023012E6B6385F82E305F
:1082540008BF02224FF0010314BFC4F80032C4F86F
:108264000022236223602B68BBB905F1340805F1B1
:108274002E074FF0010A039B002B18DC95F82E30D3
:108284001BBB0020039B002B0EDC0023C4F800352D
:108294000523C4F80035032006E040F28623AB60D2
:1082A400AB68C4F80433002004B0BDE8F087CDE91E
:1082B400006A4B46424639462046FFF7B3FE002883
:1082C400DCD0039B013B0393D5E7D4F8C434C4F852
:1082D400C434002BD5D013F0010F14BF4FF4024067
:1082E400032048F2012213F0020F18BF104613F0C6
:1082F400040F48F2022318BF1846C3E7A086010002
:10830400F0B52C4C2C4894F82C3089B004F134028C
:108314000193A36A0093636A04F12E01FFF782FEBE
:108324002746E0B994F82EC0266ABCF1000F1DD18F
:10833400217B8B1E012B19D8626AA3699A4215D13D
:10834400E26963696262C6F340160329A36284F892
:108354002C6006D1009618492046FFF7DBFE09B0D1
:10836400F0BD15492046FFF755FFF8E7134D0FCD33
:1083740003AC0FC42B682360BCF1000F17D00E4A66
:10838400D2F8C434C2F8C43499070CD501238DF84B
:108394000830002387F82F307307E0D4D7E9003181
:1083A40002A89847DBE75A07F3D50223EFE78DF8D5
:1083B40008C0EEE74C620020003000405862002004
:1083C4002DE9F84F05793C4C4FF03C0A0AFB05FABD
:1083D40004EB0A069B4696F82D3080460F469146DC
:1083E400002B65D13549006800F08EFB002861D16F
:1083F4003A687B7B86F838301F2A8CBF02F01F0353
:108404001346B060C6F804B086F82F0086F8300032
:1084140003F5E07188BF2A4E44F80A9098BF4FF0E4
:10842400A04640F20C6346F8213079681F291E46A5
:108434008CBF01F01F030B4603F5E0738CBFDFF81C
:1084440080C04FF0A04C4CF82360D8F80030C3F83B
:108454000825BA68C3F80C15C3F82425B9F1000F30
:108464001ED01B0B59B200293A7BB4BF154E01F143
:108474006046DBB2B8BF03F00F074FEA4212A8BF51
:1084840006F56146D2B2B4BFF25586F8002303F074
:108494001F03012202FA03F349090B4A42F821306F
:1084A4003C2303FB0544012384F82D30BDE8F88FF9
:1084B4000820FBE71120F9E74C6200200583020045
:1084C4000003005014ED00E000E100E002680379CD
:1084D4000521C2F80015044A3C2101FB03230222B2
:1084E40083F82D20704700BF4C6200202DE9F74F20
:1084F4002E4E90F80480D0F800E02D4BCEF80833CF
:108504003C2404FB0864C8EB081994F82F308A460D
:10851400154606EB890903F0FF0B33B1A368CEF8C7
:108524000433112003B0BDE8F08F82F00403C3F3D9
:10853400800384F82F3022628C46BCE80F0004F1DB
:108544000C070FC7DCF800303B60DAF80430A36294
:10855400DAF80C2062629AF80110CEF888159AF8BD
:10856400001001291AD0B9B9C5F340153C2101FB0B
:108574000861484681F82C5000957146FFF7CAFD02
:108584003C2303FB08F806EB080256F80830002BDE
:10859400C8D182F82F30C5E70125E7E784F82CB06D
:1085A40071464846FFF736FEEAE700BF4C620020FA
:1085B40086420400F0B587B004460F4615460021F4
:1085C400142201A81E4608F05FFE9DF830308DF895
:1085D4000570002B14BF2022002201A92046029618
:1085E4000495FFF783FF07B0F0BDF0B587B00446EC
:1085F4000F461546002112220DF106001E4608F012
:1086040043FE0123002201A920468DF804308DF891
:10861400057002960495FFF769FF07B0F0BD0000EE
:10862400044A137923B901211060918018467047D8
:108634008520704788620020074B1A68D2075FBF05
:10864400C02283F8002301221A604FF080430122E4
:10865400C3F81825704700BF00E100E0044B012275
:108664001A604FF08042D2F81834DB03FBD4704711
:108674000C000040154B07B51A687AB100221A6045
:108684001B680093009B4FF080430122C3F808232A
:108694000F4B587910B95A711B6898470D4B1A68DB
:1086A40082B100221A601B680193019B4FF0804342
:1086B4000222C3F80823064B1B68012003B05DF8AF
:1086C40004EB184703B05DF804FB00BF0001004051
:1086D400886200200401004000F1804000F5C040A1
:1086E400002382B0036003680193019B02B07047CA
:1086F40003681F2B83BF03F01F03036001484FF07F
:10870400A04070470003005007B5019001A8FFF78F
:10871400EFFF019B00EB8300D0F8002722F44032E6
:10872400C0F80027D0F8003743EA0143C0F8003707
:1087340003B05DF804FB0000054B4FF0FF3207283F
:1087440043F8202084BF1B1883F85820704700BFCB
:108754009062002010B5174C94F86A3043BB04F1C2
:1087640030033021FF22013911F0FF0103F8012BFE
:10877400F9D1C8B2FFF7E0FF01310C29F9D1062283
:1087840000210D4808F080FD0C4BC02283F806231D
:1087940040221A604FF4BE70FFF79EFF084B4FF063
:1087A4000042C3F80423012384F86A30002010BD7A
:1087B4000820FCE790620020F462002000E100E061
:1087C40000600040F7B53B4E3318054693F930304E
:1087D400002B6CDA8B78C3F34003002B0BBF082407
:1087E40000240C200820844202D1042003B0F0BDF0
:1087F40056F82470013743D1701946F8242080F8C4
:10880400304013B9331983F858508B785A0717D46A
:10881400D80737D501A80195FFF76AFF019B00EB44
:108824008300D0F8003723F00203C0F80037224851
:10883400EA0805F007070123BB40875C3B438354E8
:1088440088780A7810F0020028D0A40004F180444B
:1088540004F5C0442D02D4F8103523F44F3323F427
:108864004073C4F810351204D4F8103505F47C555F
:1088740002F4403215431D43C4F810550020B5E7F7
:108884000134B0E701A84A780195FFF731FF019B55
:1088940003F5E073920040F82320C8E7083C344411
:1088A40094F8605045EA821284F860209EE708201C
:1088B4009CE700BF90620020F462002073B5224C54
:1088C4002518064695F93020072A19DD224492F826
:1088D40058309B09032B0FD1019001A8FFF708FF23
:1088E400019AD0F81035D340DB0707D40221304673
:1088F400FFF70AFF02B070BD012BF7D00321F6E7A2
:10890400D3B2072BF6D8930003F1804303F5C04399
:10891400D3F8100540F00100C3F8100502F140003F
:10892400800080B2FFF7D8FE0029E3D095F93030FB
:1089340054F82330002BDDD0012303FA02F2034B59
:10894400C3F80423D6E700BF906200200060004013
:108954002DE9F04F002489B0CDE90244624D4FF473
:108964008072012102F1804303F5C04390B21B6879
:10897400012B06D1D5F804330B4202D0FFF7ACFE2D
:108984000C430432B2F5907F4FEA4101EAD1574BD0
:108994001B68012B0ED14FF4BE70FFF79DFE4FF004
:1089A400A04344F00044D3F810350293504BD3F85D
:1089B4001035039314F0FF0F1AD04E4F00250126F3
:1089C400344210D0AB0003F1804303F5C043D3F825
:1089D4001005D3F8101557F8253023B1C1F3014120
:1089E400C0F3052098470135082D4FEA4606E7D124
:1089F400002C75DA0DF1100800230493C8F8043034
:108A04004FF0FF33CDE90633DFF8E8A0DFF8E89054
:108A140000273D4619F9014B631C48D0E4B20123F9
:108A240024F0C00604F0070203FA02F2F00808ABCF
:108A3400191811F8083C134239D00AEB0603A409AB
:108A440093F930305AF823B0BBF1000F08D1032C4E
:108A54002DD118F800C04CEA020C08F800C001E05F
:108A6400032CF6D001A80196FFF742FE019B11F8F2
:108A7400181C03F5E07C114250F82C00C0F30140AF
:108A840005D0022813D1032C0BD1214604E003287E
:108A94000DD1032C05D102213046FFF735FE0135F7
:108AA400EDB2BBF1000F02D021463046D847013762
:108AB400042FAFD1A5B14FF0A0430299D3F81025EC
:108AC40003F540739142D3F8103502D103999942CA
:108AD40006D002920393049A059B0692079395E7A6
:108AE40009B0BDE8F08F00BF006000407C61004029
:108AF4000003005090620020F0620020014B1B68CC
:108B0400184700BFFC6200200E4B984237B50D4653
:108B140002D0002003B030BD00230DF107008DF812
:108B24000730FEF717FC084B1C7914B901221D60AD
:108B34001A719DF80700FEF731FC002CE9D01120D2
:108B4400E8E700BF00200040FC620020034B98428D
:108B540001BF034B00221A601A71704700200040C5
:108B6400FC6200200023435082B043580193019BD0
:108B740002B070470A4610B54FF48E71FFF7F2FF4A
:108B8400136A9168C95C136A01331362C0F81C1537
:108B940010BD8B690A4610B54FF4847123B9FFF7F1
:108BA400E1FFD0F8183510BDFFF7DCFF536AD16838
:108BB400D0F81805C854536A01335362F3E7000030
:108BC4001FB501238DF80030044BCDE90110D3E922
:108BD40000126846904705B05DF804FB046300206A
:108BE40030B54C4AD2F8043313F4007F85B01546EF
:108BF4004FD0D2F82431002B4BD04FF49271104651
:108C0400FFF7B0FF4FF40173C2F80833424B93F8F7
:108C1400291009B9012151603E4902228DF8002032
:108C2400D1F88024C1F8802403929A690292DA6808
:108C340001920022C3E906226846D3E90012904754
:108C44003448D0F81C315BB133490A6A4B699A4203
:108C54000A464BD291F82830002B47D1FFF78AFF00
:108C64002C4AD2F8443193B14FF4A2711046FFF765
:108C740079FF294B93F8291009B1012111609A69F0
:108C84002AB100229A61586AD968FFF799FF05B0A2
:108C940030BDD5F804335B07D2D5D5F80831002BA5
:108CA400CED01D4C1B482146FFF773FF636AA269AF
:108CB4009A422346C4D1E269E1684AB12369E36078
:108CC4000023606AA261E3616362FFF779FFB7E79B
:108CD40094F829200AB901226A600E4A4FF40170FF
:108CE400C2F8080300229A61586AEEE74FF48E71C5
:108CF4000848FFF737FF51690029B1D000230291DA
:108D040091688DF80030019153616846D2E90013EF
:108D14009847A5E700200040046300201F2886BF71
:108D240000F01F00044B4FF0A04300F5E070022256
:108D340043F82020704700BF000300502DE9F8439A
:108D4400624F047991462C2202FB0472064692F883
:108D54002A200D46002A40F0B3805D490068FFF7E1
:108D6400D3FE8046002840F0AE8029684A1C10D00B
:108D74001F2987BF01F01F03564A0B464FF0A0423C
:108D84000120984003F5E073C2F80805032042F877
:108D940023006868431C0DD01F288BBF00F01F03FD
:108DA40003464C4A4FF0A04203F5E0734FF0000C29
:108DB40042F823C03368AA6995F814C0C3F824257F
:108DC4006A7DBCF1010F4CEA0202C3F86C25C3F8BA
:108DD4001405C3F80C152BD1A968481C0DD01F2904
:108DE4008BBF01F01F020A463A484FF0A04002F53B
:108DF400E0724FF0000C40F822C0E868421C13D027
:108E04001F2887BF00F01F0C324A84464FF0A0424F
:108E14004FF0010E0EFA0CFE0CF5E07CC2F808E5EA
:108E24004FF0030E42F82CE0C3F80805C3F8101500
:108E34002C236343FA18C2F804902A69FA50B9F152
:108E4400000F2AD04FF48E7130682D7FFFF78AFE11
:108E540030684FF4A271FFF785FE32681E4BC2F8EA
:108E64000433120B51B20029A8BF01F160404FEA4C
:108E74004513BABF194802F00F0500F56140DBB293
:108E8400B4BF435580F8003302F01F02012303FAF4
:108E940002F24909124B43F8212033680422C3F833
:108EA40000252C2303FB04730022C3E9062283F864
:108EB40029205A61012283F82A204046BDE8F8831C
:108EC4004FF00808F9E74FF01108F6E704630020B3
:108ED400E58B0200000300508000020014ED00E066
:108EE40000E100E02DE9F04103680479254D0022FA
:108EF400C3F800252C2202FB04520646526872B1C4
:108F0400214AC3F80823190B4AB20120520901F07F
:108F14001F0100FA01F120321C4840F82210D3F856
:108F24000C05D3F81485D3F80815D3F810754FF051
:108F3400FF329042C3F81425C3F80C25C3F8082562
:108F4400C3F8102501D0FFF7E9FEB8F1FF3F02D0C6
:108F54004046FFF7E3FE7A1C02D03846FFF7DEFEF8
:108F64004B1C02D00846FFF7D9FE3068FFF7EEFD30
:108F74002C2303FB0454002384F82A306360BDE8E7
:108F8400F08100BF046300208402020000E100E0DD
:108F94002DE9F843224F06794FF02C0909FB06749A
:108FA40080466569002D37D16261A16025624FF466
:108FB4008E71006884F82850FFF7D4FDD8F80000BB
:108FC400012383602146FFF7D5FD6368A1462BBBCF
:108FD400D8F80050226A63699A4212D3D8F8003054
:108FE400D3F81C21002AFBD00122DA6000202C23B4
:108FF40003FB067600237361BDE8F88394F82830F8
:1090040043B9D5F81C31002BF8D049462846FFF760
:10901400B1FDDFE70F20EAE71120EDE72846EBE793
:10902400046300200023435082B043580193019B02
:1090340002B070471FB501238DF80030044BCDE911
:109044000110D3E900126846904705B05DF804FBAF
:10905400306300207FB5374AD2F82461002E48D00F
:1090640010464FF49271FFF7DDFF02238DF80030B4
:10907400D2F88034C2F880340393D2F83C3502939A
:109084002D4BDA6801920022C3E906226846D3E92F
:1090940000129047274AD2F844317BB14FF4A271B1
:1090A4001046FFF7BFFF244B996939B10021C3E98A
:1090B4000611D968D2F83C05FFF7BCFF1D4AD2F867
:1090C4002031A3B14FF490711046FFF7ABFF1A4B58
:1090D400596961B1D2F84C150291002299688DF852
:1090E400002001915A616846D3E90012904704B008
:1090F40070BDD2F81031002BCCD04FF488711046DB
:10910400FFF790FF0C4BD2F83C0599698842C1D116
:10911400DC69D96864B1D2F8005225F02005C2F8A0
:1091240000521A699C61DA60DE61FFF783FFB1E7E0
:109134009C61FAE700200040306300201F2886BFAE
:1091440000F01F00044B4FF0A04300F5E070022232
:1091540043F82020704700BF000300502DE9F84376
:10916400664F06799146242202FB0672044692F861
:1091740020200D46002A40F0BB8061490068FFF7BB
:10918400C3FC8046002840F0B6802868421C10D0FA
:109194001F2887BF00F01F035A4A03464FF0A0421E
:1091A4000121994003F5E073C2F80815032142F840
:1091B400231069684B1C0DD01F298BBF01F01F03BE
:1091C4000B46504A4FF0A04203F5E0734FF0000CF9
:1091D40042F823C02368AA6995F814C0C3F824256B
:1091E4006A7DBCF1010F4CEA0202C3F86C25C3F896
:1091F4000C05C3F814152BD1A968481C0DD01F29E0
:109204008BBF01F01F020A463E484FF0A04002F512
:10921400E0724FF0000C40F822C0E868421C13D002
:109224001F2887BF00F01F0C364A84464FF0A04227
:109234004FF0010E0EFA0CFE0CF5E07CC2F808E5C6
:109244004FF0030E42F82CE0C3F80805C3F81015DC
:1092540024237343FA18C2F804902A69FA50B9F126
:10926400000F34D04FF4887120682D7FFFF7DAFEA9
:109274004FF490712068FFF7D5FE4FF49271206887
:10928400FFF7D0FE20684FF4A271FFF7CBFE2268EF
:109294001D4BC2F80433120B51B20029A8BF01F1CF
:1092A40060404FEA4513BABF184802F00F0500F5B5
:1092B4006140DBB2B4BF435580F8003302F01F02B3
:1092C400012303FA02F24909114B43F821202368D0
:1092D4000822C3F80025242303FB06730022C3E9F4
:1092E40006225A61012283F820204046BDE8F88313
:1092F4004FF00808F9E74FF01108F6E73063002053
:1093040059900200000300501003020014ED00E025
:1093140000E100E02DE9F04103680479254D0022C5
:10932400C3F80025242202FB04520646526872B197
:10933400214AC3F80823190B4AB20120520901F04B
:109344001F0100FA01F120321C4840F82210D3F822
:109354000C05D3F81485D3F80815D3F810754FF01D
:10936400FF329042C3F80C25C3F81425C3F808252E
:10937400C3F8102501D0FFF7E1FEB8F1FF3F02D09A
:109384004046FFF7DBFE7A1C02D03846FFF7D6FED4
:109394004B1C02D00846FFF7D1FE3068FFF7D6FB1E
:1093A400242303FB0454002384F820306360BDE8C5
:1093B400F08100BF306300201003020000E100E0F0
:1093C40001F06043B3F1005F2DE9F041074632D16B
:1093D4001C4B0679242505FB063598466C6964BB4D
:1093E4006A61A96000684FF49071FFF71BFE4FF4A7
:1093F400AC713868FFF716FE3B686A69A968C3F860
:109404004415C3F8482501229A606A68BAB9D3F8AA
:109414002011D3F8582149B9002AF8D00F20242369
:1094240003FB068600237361BDE8F081002A14BFA4
:109434000F200020F3E71020F6E71120F4E7204680
:10944400F2E700BF3063002072DF704773DF7047BC
:1094540076DF70477ADF70477CDF70477FDF7047C5
:109464008FDF7047B1DF704770470000034B1A6805
:10947400034B1A60034B01221A607047286A0020CC
:1094840094680020906800207047FDF775BC0000C8
:1094940008B5054B01211878FFF7D8FF18B1BDE8CE
:1094A4000840FDF769BC08BDE45A00200388212B5D
:1094B40013B504463FD019D8112B22D0132B32D028
:1094C400102B2ED1244B25482549C01AC00800046E
:1094D40040F00300FDF7E8FA224BA18822481980E6
:1094E40001F05EFAE8B1FDF747FC1AE0522B2AD0EE
:1094F400562B01D03B2B14D11321A088FFF7A8FFD2
:10950400F0E7154B15481949C01AC008000440F08B
:109514000300FDF7C9FA134B4FF6FF721A80FFF7E9
:10952400B7FF02B010BD0F4800231A4685210088FA
:10953400FFF794FFD6E7002301A98088ADF8043033
:10954400FFF78EFFCEE7074800231A461946008826
:10955400FFF788FFC6E700BFFC1A03002C1B0300BB
:1095640076220300E65A0020FC68002080220300D3
:1095740008B503784BB9054B3B211888FFF768FF02
:1095840018B1BDE80840FDF7F7BB08BDE65A002056
:109594002DE9F0411F4D06460F4690460FCD86B08B
:1095A4006C460FC495E8030006AB84E8030003EBA4
:1095B4008606194D56F8183C184A4FF4807128460F
:1095C40007F006FEFF28044621D8C0F58071434603
:1095D4003A46281807F021FE0444FF2C17D8C4F596
:1095E400807128190E4A07F0F3FD0444FF2C0ED8AD
:1095F4000C480D4B0949C01AC00800042A4640F023
:109604000500FDF755FAFDF7E5F80028FBD106B093
:10961400BDE8F08118220300286900203F240300DC
:109624002E1C03002C1B0300FC1A0300044A53687D
:109634005B690BB1106818476FF00100704700BFF9
:1096440058630020FDF798BB08B5431C024604D1BB
:109654000249032007F076F9FEE708BD8D220300D6
:1096640020B1034B800143F001031847704700BF4A
:10967400A0220300014BD3E900017047286A0020AF
:1096840006300C289ABF024B53F82000014870475B
:10969400302203006422030010B5436886B00446F8
:1096A400002B3AD1006820F00043013B202B00F24C
:1096B4007981DFE813F0340075002F01560077013B
:1096C40077017701770134003400050177017701D0
:1096D400CE0005019400770177016C010501770143
:1096E40077017701770177016101770177017701CC
:1096F400770177012100210001F030FEA369049372
:109704006369039323690293D4E90223AA49CDE947
:1097140000230246032007F015F906B010BD01F03E
:109724001DFE9FEDA66AD4ED057AD4ED046A94ED8E
:10973400067AA34967EE867A66EE866AFDEEE77AD4
:1097440027EE067ACDED007AFDEEE67ABDEEC77A15
:1097540017EE903A8DED017A0246032007F0F2F8F5
:10976400DBE701F0FBFD9FED956AD4ED057AD4EDBE
:10977400046A94ED067A934967EE867A66EE866A01
:10978400FDEEE77A27EE067ACDED007ABDEEC77AD4
:10979400FDEEE67A8DED017A17EE903A0246DCE7AB
:1097A40001F0DCFD9FED856AD4ED057AD4ED046A01
:1097B40094ED067A844967EE867A66EE866AFDEE53
:1097C400E77A27EE067ACDED007ABDEEC77AFDEE94
:1097D400E67A8DED017A17EE903A0246BDE701F084
:1097E400BDFDDFED767A94ED097AD4ED046A77490C
:1097F40027EE277A66EEA76ABDEEC77A02468DED9C
:10980400047A94ED087A27EE277ABDEEC77A8DEDB7
:10981400037A94ED077A27EE277ABDEEC77A8DEDA9
:10982400027A94ED067A27EE277ABDEEC77A8DED9B
:10983400017A94ED057A67EE277AFDEEE77ACDEDAD
:10984400007AFDEEE67A17EE903A032007F07AF8F4
:1098540063E701F083FDDFED597A94ED097AD4EDE5
:10986400046A5B4927EE277A66EEA76ABDEEC77ADB
:1098740002468DED047A94ED087A27EE277ABDEE40
:10988400C77A8DED037A94ED077A27EE277ABDEE39
:10989400C77A8DED027A94ED067A27EE277ABDEE2B
:1098A400C77A8DED017A94ED057A67EE277AFDEE9D
:1098B400E77ACDED007AFDEEE67A17EE903AC4E74A
:1098C40001F04CFDDFED3D6A94ED077AD4ED057AA5
:1098D40094ED046A3F4927EE267A67EEA67ABDEE38
:1098E400C77A26EE266A8DED027A94ED067AFDEEAD
:1098F400E77A27EE267ACDED007ABDEEC77AFDEE43
:10990400C67A02468DED017A17EE903A032007F0ED
:1099140019F802E7D4ED047A2F4A3049FDEEE77ACC
:1099240017EE903AD4ED057A1380FDEEE77A17EE40
:10993400903AD4ED067A5380FDEEE77A17EE903A2A
:109944009380274B188807F067F8D4ED067AD4ED96
:10995400056A94ED047A2349FDEEE77ACDED007AA9
:10996400FDEEE67A17EE903AFDEEC77A17EE902AEE
:10997400032006F0E7FFD0E601F0F0FC216902467F
:109984000846FFF77DFE0B4600901749F0E701F00B
:10999400E5FC236915490246032006B0BDE81040E2
:1099A40006F0D0BF01F0DAFC11490246032006B0EC
:1099B400BDE8104006F0C6BF3623030000007A4419
:1099C400592303007623030095230300B2230300E5
:1099D400DA2303000024030088680020EC680020D8
:1099E400E65A0020222403002C240300422403000E
:1099F4005624030008B54FF400410020FCF790FE04
:109A040008B1FDF7B9F9BDE80840FCF7BFBD000097
:109A140030B5A9B0FFF7EEFFFDF704FC08B1FDF780
:109A2400ABF9A84AA8480121FDF72CFC08B1FDF7C1
:109A3400A3F900222121A548FDF736FC08B1FDF762
:109A44009BF9FDF7E5FF08B1FDF796F901F04EF833
:109A540008B1FDF791F9002319A90120199301F028
:109A6400CDF808B1FDF788F919A801F077F908B124
:109A7400FDF782F9112396488DF8283007F037FC5A
:109A8400934982B20AA8FFF7E7FC08B1FDF774F91D
:109A94000822002119A807F0F7FB8E4A4FF0C8737B
:109AA40019A8CDE91923FFF7D5FC08B1FDF764F92E
:109AB4000021894800F06CFE08B1FDF75DF9002330
:109AC4000A9319A9854B8648199300F057FF08B1EA
:109AD400FDF752F9834B84480A930AA906F050FF14
:109AE40008B1FDF749F9BC23ADF80C307E4B7F4C2F
:109AF4009B7A8DF80E303C2200210AA807F0C4FBA3
:109B040002238DF828303C2240F20163002119A879
:109B1400ADF82A3007F0B8FB22460123ADF87430C3
:109B240052F8041B03AB0AA81E9300F0A7F908B16E
:109B3400FDF722F96E4AA16819A800F09FF908B14F
:109B4400FDF71AF91822002104A807F09DFB002351
:109B54000122ADF81C3005934FF480738DF810206A
:109B6400ADF8243004AA4023604962480693FFF705
:109B74006BFC08B1FDF700F91C22002119A807F0BD
:109B840083FB00234FF42022CDE91932ADF8723063
:109B94004FF420328DF87430574B1B921E930322DE
:109BA400564B8DF8702019A81F9300F031FC08B1B2
:109BB400FDF7E2F8FEF7CEFD08B1FDF7DDF840F25F
:109BC4000333ADF864304E4A022319A92E208DF8D0
:109BD4006630FEF7F7FD08B1FDF7CEF801212E201F
:109BE400FEF76CFEFFF754FC4649474C062006F08E
:109BF40097FE4649032006F0A5FE4549032006F0DA
:109C0400A1FE4249032006F09DFE06F031FF0368E1
:109C1400984706F02DFF43F2D273009301463D4B63
:109C24003D4A204601F078FB63681B6813B119A90B
:109C34002068984763689B680BB120689847FFF7D2
:109C4400F5FC3649032006F07DFE63681D69002D8E
:109C540031D001230021CDE900312E4A206843F29E
:109C6400D273A847FFF7F0FC63681B6A33B3032180
:109C7400206898470546032001F070FB284A294BC9
:109C84002949002D08BF13460246032006F05AFE58
:109C9400002D6CD0FFF7CAFC244C00252368002B50
:109CA400FCD0FFF7C3FC431C02465AD120490320D1
:109CB40006F048FEFEE76FF00100D3E76FF0010500
:109CC400D9E700BF8D940200A82203000869002090
:109CD400B22203005000A000D86800208F94020034
:109CE400FC6800206D940200EC680020D45A002027
:109CF400E05A0020E45A00207595020049960200BB
:109D0400719402009595020058630020BF2203005D
:109D1400E322030000230020E85A00200723030065
:109D2400AC220300AF220300172303009068002035
:109D34008D2203004CF250320321206898470546D7
:109D44002846FFF781FC63689B6A3BB1012203212B
:109D5400206898472844FFF777FC9BE76FF00100E1
:109D6400F8E700289ADB72B6256062B696E703200E
:109D740001F0F4FA4CF2503302460549032006F090
:109D8400E1FD6368DB6A002BD4D16FF00105D7E7EE
:109D9400222303006DDF704779DF70477DDF704752
:109DA40064DF70472DE9F74F0C9CBDF834B0278869
:109DB400002580468A4691462E46B8F80020B242D5
:109DC4000BDC35B12288013AD21B92B2FF2A39D872
:109DD400DA55002003B0BDE8F08FD8F8042052F81B
:109DE4002600019000220DF1030101A8FFF7D8FF1E
:109DF4000028EFD19DF803204A4521D12288002D67
:109E040014BF0020022002EB09010144594519DC6A
:109E14003DB9013292B2228003F802A022880132B5
:109E2400228022880DF103011A4401A8FFF7B8FF2C
:109E34000028CFD121889DF803200A4422800125DF
:109E44000136BAE70C20C5E72DE9F341089CBDF8BB
:109E540024501746CDE9004502220646FFF7A2FF2B
:109E640048B9102239463046CDE9084502B0BDE86C
:109E7400F041FFF797BF02B0BDE8F0812DE9F04F44
:109E840000231688138090F82D3085B007460D46C0
:109E9400144653B3082E01D80C2028E102A8FFF77A
:109EA40079FF002840F0238113880822CA542388AC
:109EB40001339BB21B222380CA542088013080B214
:109EC400208006220DF10901284407F0B4F9238803
:109ED4009DF8082006339BB212F0FE0218BF01223F
:109EE4002380EA54238801332380BB78FBB1238881
:109EF4000433B342D0D802A8FFF74EFF002840F045
:109F0400F68023880322EA54238801339BB2192262
:109F14002380EA542388BDF8082001339BB2E91852
:109F24002380EA54120A4A70238802332380FA7881
:109F34009AB12388D91CB142AED80221E9542388AE
:109F440001339BB201212380E95423880B449BB243
:109F54002380EA5423880B4423807A68AAB1238897
:109F6400D91CB14298D8022192F90020E9542388DF
:109F740001339BB20A212380E954238801339BB225
:109F84002380EA542388013323803B89002B40F04B
:109F9400A2803B8A5BB1CDE900462B460722032110
:109FA40007F11000FFF750FF002840F0A0803B8B22
:109FB4005BB1CDE900462B461522142107F11800A8
:109FC400FFF742FF002840F092803A6A002A40F0EE
:109FD4009180D7F82480B8F1000F30D0B8F804305D
:109FE4002188981C8A1C0244B2423FF655AFFE28D1
:109FF4003FF652AF03336B54238801339BB2FF22E5
:10A004002380EA54238801339BB22380B8F80020CC
:10A01400EA54E918120A4A702088023080B220807B
:10A02400B8F804205AB1D8F8081000296CD0284494
:10A0340007F001F92388B8F804201344238097F823
:10A044002C30002B40F09B80387800284FD03B8880
:10A05400012B59D0228802F1020CB4453FF61CAF03
:10A06400012805D17B78023313449E42FFF414AFD8
:10A07400023EB61AB6B202A905EB0C00ADF80860B0
:10A08400FFF78CFE98BB3978BDF80820022900F050
:10A09400BB807B78934202D3B24240F2B380012961
:10A0A40040F0B4809BB29E42C0F0B080ADF808305E
:10A0B4000821BDF80830FE2B3FF6EEAE22880133AE
:10A0C400AB542288013292B22280A95422881344CC
:10A0D400238000200BE0CDE900462B460622022116
:10A0E40007F10800FFF7B0FE00283FF452AF05B0B7
:10A0F400BDE8F08FB4F800C00CF10603B3423FF69C
:10A10400CBAE1188052901D80720F0E76FF4486E1B
:10A1140001EB0E039BB24FF27D3E7345F4D9538895
:10A12400052BF1D96FF44860181880B27045EBD94B
:10A134004FF6FF70814203D0834201D09942E3D8A5
:10A14400052305F80C30238801339BB212212380A8
:10A15400E954238801339BB223801188E954E81819
:10A16400090A4170238802339BB223805288EA543F
:10A17400E918120A4A7023880233238029E7BB6A4C
:10A18400002BC1D04FF000094FF00C0A4FF0160B12
:10A1940097F82C305FFA89F293427FF655AFB96A8B
:10A1A4000AFB02F201EB0208B8F80430981CFE28FE
:10A1B4003FF672AE208803332B54238801339BB2BD
:10A1C400238005F803B0238801339BB223808A5A85
:10A1D400EA54E918120A4A702088023080B22080BA
:10A1E400B8F804205AB1D8F8081000298CD02844B3
:10A1F40007F021F82388B8F804201344238009F1D8
:10A204000109C5E7092154E7B242FBD9ADF808605A
:10A214004EE775DF704776DF70477ADF70477BDF84
:10A2240070470000034B1A8882420CBF1846002076
:10A23400704700BF4C6A0020024B9B6903B118476A
:10A24400704700BF306A002037B585B22846FFF753
:10A25400E9FF034670B1164C017A227B91420BD27E
:10A2640000F10A012846FFF7D4FFE8B1112801D014
:10A27400FFF7E2FF03B030BD237C0022027243B13A
:10A284003B212846FFF7C7FF30F0080301D0FFF752
:10A29400D3FF6369002BEDD000228DF80420ADF8C4
:10A2A400065001A89847E5E71A7A01321A72E1E7E5
:10A2B400306A002013B50B46497A0F4C024669B93F
:10A2C400D4E901101C7A002C18BF01465868FCF729
:10A2D400EBFF08B1FFF7B0FF02B010BD0021197207
:10A2E4006369002BF8D00121ADF806008DF8041045
:10A2F40001A89847F0E700BF306A00204B88028825
:10A304009A4213D842889A4210D380888A8840F2AD
:10A31400F313984294BF031AC31A934206D800F267
:10A32400F310904234BF0020012070470020704792
:10A334000388112B70B5014648D002D8102B1ED0CB
:10A3440070BD122B52D0502BFAD12F4BC288DB890F
:10A354009A42F5D1038A022BF2D186883046FFF760
:10A3640061FF05460028EBD001F1120000F021F94D
:10A3740030BB6868FCF7DEFF0028E1D009E0C37B4E
:10A38400012BDDD14FF6FF70FFF74CFF054620B9D6
:10A394000420BDE87040FFF74FBF1C4A8E8806803A
:10A3A400002303721368C5F80A300A305368436007
:10A3B4001031FFF7A3FF144B6872DB89002BBFD168
:10A3C40029463046BDE87040FFF774BF8088FFF728
:10A3D40029FF04460028B3D04068FCF7ABFF08B15E
:10A3E400FFF72AFF4FF6FF732380A9E786883046DC
:10A3F400FFF718FF05460028A2D008310A30FFF7FE
:10A404007DFF6872DCE700BF306A0020606A0020CC
:10A41400F8B5064648B305460FCD154F3C460FC464
:10A4240095E8070084E807003068124B3B60B0B140
:10A43400FFF7F3FEC0B931680A681A604A685A60C7
:10A444000D480E4A4FF6FF7303800D4B40F8043F4E
:10A454000021FCF717FF002818BF032004E018466A
:10A46400FFF7DDFE0028EBD0F8BD0E20FCE700BFAF
:10A47400306A0020606A00204C6A00204DA202006D
:10A48400686A002073B50191019C06466CB10025F1
:10A494002C46294601A8FCF7AAFF18B106EB440391
:10A4A40001349D800135142DF3D13046346002B05F
:10A4B40070BD00002DE9F04703888488112B8CB00F
:10A4C40006463CD01A2B3FD0102B17D1274DAB6832
:10A4D400DB43009369686846FCF7B2FF009901A862
:10A4E400FFF7D0FF0DF108094FF00008019B9845D4
:10A4F40007D3132C13D90420FCF73EFC0CB0BDE8A1
:10A50400F08739F802AB00270137514605EB870085
:10A51400FCF763FF1D2FF7D108F10108E6E7214698
:10A524001348FCF751FF21461248FCF74DFFF37B1B
:10A53400012BE3D010482146FCF746FFDEE70C4828
:10A544002146FCF74AFFD9E7057A0C482D09012D6D
:10A55400214606D9FCF738FF022D21460848F0D0E1
:10A56400EAE7FCF73AFF21460548EAE7886A002053
:10A57400906A00208C6A0020946A0020986A002067
:10A584009C6A0020AADF7047002301380B7004285E
:10A5940006D8DFE800F00306080A0C0011230B704C
:10A5A40070472123FBE73123F9E71223F7E722233E
:10A5B400F5E7007800F001007047F0B58B7891B0B2
:10A5C400002B0C4608BF01238DF80E3005460B887E
:10A5D400ADF80C30002116466846032206F054FEFE
:10A5E4006946607CFFF7D0FF0DF10101A07CFFF705
:10A5F400CBFF9DF80230E27B62F3C303227C62F35B
:10A604000413227B62F30003227D002A14BF02227A
:10A61400012262F3420300211C2209A88DF80230B2
:10A6240006F032FE637B13F0300F15D002AF032225
:10A634000021384606F028FE0DF10901E07CFFF701
:10A64400A3FF11238DF808309DF80A300E970122DC
:10A6540062F342038DF80A30637B8DF824301422B0
:10A66400A37B8DF82530002104A806F00DFE03AB72
:10A674000493A388ADF81C30A368CDF814D01BB1A3
:10A68400E288ADF818200893A369002B2ED001AFFF
:10A6940003220021384606F0F7FDA3691A88ADF8B5
:10A6A4002C205A88187BADF82E2039465A680A9215
:10A6B4000D97FFF769FFA3690DF10501587BFFF7BB
:10A6C40063FFA2699DF80630917A61F3C303D17ADE
:10A6D40061F30413117A927B002A61F3000314BF1F
:10A6E4000222012262F342038DF80630E36903B1CA
:10A6F4000C93334604AA09A92846FFF743FF11B077
:10A70400F0BD90DF7047A5DF7047B5DF70470000EC
:10A714007FB50023ADF80810ADF80A106A4602A907
:10A72400064603930093ADF80430FFF7EAFF0546AD
:10A7340000B3124B124CE41AE408FDF7BDF92404EB
:10A7440044F00104034632460E492046FCF7B9F9A9
:10A75400BDF80020BDF8023052EA030103D00A49D3
:10A764002046FCF7AEF9BDF804201AB1074920468B
:10A77400FCF79EF9284604B070BD00BFFC1A030024
:10A784003C1B0300212503006B250300AA250300BD
:10A7940078B14FF0171303601B2303711723C38091
:10A7A400038141F61B3200230161438182811846F3
:10A7B40070470E207047000013B5034680880C468E
:10A7C400A0B91A88232A00F0A38011D8102A22D015
:10A7D400112A51D0A37A4BB1E1880020FFF793FFEF
:10A7E400002840F09B804FF48073638102B010BD59
:10A7F4003A2A49D0552A5FD0242AEBD11A7A0B6918
:10A804004A73002BE6D04DF67A21ADF8040000918E
:10A814008DF8042078E0DB7B0A790A73012B13D0CE
:10A82400022B14D0E18823898B4205D20020FFF744
:10A834006AFF70B90123E372217B637B8B42C9D227
:10A844000020FFF765FFC5E70B88E380EAE74B8844
:10A85400FBE7112802D10123A372EDE7FDF72CF9E0
:10A86400374A384B38499B1ADB081B04024643F02D
:10A874000100FCF71DF9DFE71723CB800B8141F6BC
:10A884001B3348818B81A5E75B89CA88934228BF23
:10A894001346172B0A6938BF17230B814AB1C97AAB
:10A8A40039B140F677210091ADF80430694620466D
:10A8B4009047002363818DE7DB88C988A072172B3A
:10A8C40038BF17238B4228BF0B462381FFF71DFF98
:10A8D40060B1FDF7F1F81A4A1A4B1C499B1ADB08C0
:10A8E4001B04024643F00100FCF7E2F8E37A002B74
:10A8F4007FF470AF2369002B3FF46CAF40F67722EE
:10A9040000922289ADF8042069462046984761E701
:10A91400197A237B994228BF194692E711283FF4FC
:10A9240065AFFDF7C9F8064A064B07499B1ADB08D1
:10A934001B04024643F00100FCF7BAF856E700BFD7
:10A94400FC1A03003C1B030000260300312603000D
:10A95400B0DF704766DF7047034610B500214088BA
:10A96400FFF7F8FF024608B91A7210BD112801D189
:10A974000122F9E75B68BDE81040184760B159B19E
:10A984000378DE2B0AD00B684360DE2303704FF696
:10A99400FF734380002070470E20704708207047E3
:10A9A40028B10378DE2B04D14180002070470E20AB
:10A9B400704708207047F0B5054685B00C46F1B1E4
:10A9C400E8B10B78DE2B1AD182884B889A4204D1E5
:10A9D4000B7A13B10846FFF7BFFF2B88112B32D037
:10A9E400512B0ED0012B0AD12B7A012B07D1A98828
:10A9F4006288914203D123722046FFF7ADFF05B070
:10AA0400F0BDAE886388B342F9D1AF79022FF6D195
:10AA1400AD7B2B1F022BF2D800211022684606F0D2
:10AA240033FC052D14BF4FF4C07300236946304630
:10AA34008DF80070ADF80430FFF78AFF0028DED0EF
:10AA440063689847DBE76388AA889A4204BF4FF695
:10AA5400FF736380D3E710DF7047000013B504462B
:10AA640009496846FCF7F3FF019808B902B010BD24
:10AA7400D0E900312046984718B16846FCF7F1FF49
:10AA8400F2E71120F2E700BF7426030013B5044671
:10AA940007496846FCF7DBFF019B0BB902B010BD08
:10AAA4002046D3E9002190476846FCF7DAFFF3E734
:10AAB4008C2603000B4991F816335A09EC231341F1
:10AAC400DB0706D5084B9A683AB94FF480030B604C
:10AAD400704742F20200FCF74FB91A6842F4800250
:10AAE4001A60704700E100E0F8610020F7B5194FE3
:10AAF4003C7864BB184E012520463570FFF7AEFF45
:10AB0400112821D02046FFF7C1FF144B8DF80340D4
:10AB1400186801900DF10300FCF71CFC104901A812
:10AB2400FFF799FF0446B0FA80F0400938709DF8A9
:10AB34000300FCF733FC3CB90A4B34701C70FFF77C
:10AB4400B9FF2846FFF7A2FF204603B0F0BD082452
:10AB5400FAE700BF016B0020006B00206D260300A4
:10AB6400996D0200026B0020014B1878704700BFFA
:10AB7400016B002007B508496846FCF768FF019B94
:10AB840013B903B05DF804FBD3E90020904768468D
:10AB9400FCF767FFF3E700BF80260300FFF7EABF77
:10ABA40060DF704769DF704761DF704730B5114B74
:10ABB4001B7891B0E3B1104D34240DF1020103A8C8
:10ABC400ADF80240FFF7F0FF70B9294601A8FCF781
:10ABD4003EFF029B002BF0D003A8D3E9002190474D
:10ABE40001A8FCF73EFFF4E7052801D0FCF7C4F800
:10ABF40011B030BD036B0020CC28030030B50546EE
:10AC040085B00C46002900F097804C4B0B600C2259
:10AC1400002101A806F038FB01238DF806302268D4
:10AC24008DF80450062301A92020ADF80830FFF761
:10AC3400B9FF60B1FCF740FF414A424B42499B1ABD
:10AC4400DB081B04024643F00100FBF731FF0C2232
:10AC5400002101A806F018FB01238DF805302268B5
:10AC6400002301A94020ADF80630FFF79BFF60B137
:10AC7400FCF722FF324A334B34499B1ADB081B048E
:10AC8400024643F00100FBF713FF0C22002101A848
:10AC940006F0FAFA0A2322688DF8043001A901208B
:10ACA400FFF780FF60B1FCF707FF254A254B2849D1
:10ACB4009B1ADB081B04024643F00100FBF7F8FE75
:10ACC4000C22002101A806F0DFFA4FF4B0632268D9
:10ACD400019301A9A120FFF765FF60B1FCF7ECFE29
:10ACE400174A184B1B499B1ADB081B04024643F006
:10ACF4000100FBF7DDFE0C22002101A806F0C4FAD6
:10AD04009DF8043022686FF3000301A9A0208DF898
:10AD14000430FFF747FF68B1FCF7CEFE084A094B41
:10AD24000D499B1ADB081B04024643F00100FBF7A4
:10AD3400BFFE002005B030BD0E20FBE7E02200205E
:10AD4400FC1A03004C1B0300A0260300E6260300A4
:10AD5400322703007E270300CF270300F8B50646F9
:10AD64000768FFF71DFF3368BB4205461DD9194B21
:10AD7400194C1A49E41AE408240444F00204204655
:10AD8400FBF792FE336816493A462046FBF799FED4
:10AD94004FF080533268D3F80C3112499B0203F10F
:10ADA40000539A1A2046FBF783FE25B90E4B012265
:10ADB4001A702846F8BD2846FCF77EFE054A064B65
:10ADC4000A499B1ADB081B04024643F00100FBF707
:10ADD4006FFEEEE7FC1A03004C1B0300222803005D
:10ADE4005128030082280300036B0020AC280300D1
:10ADF4004BDF70471FB50D4C01A8FFF7F9FF70B981
:10AE0400214602A8FCF723FE039B002BF4D00198F3
:10AE1400D3E90021904702A8FCF723FEF4E70528B4
:10AE240001D0FBF7A9FF04B010BD00BFE428030064
:10AE340030B484680D46284611461A46234630BC71
:10AE4400184730B4C4680D46284611461A462346AE
:10AE540030BC18470146024A303004F0D7BD00BF69
:10AE640069AF0200303004F096BB000073B50646AB
:10AE74002549032005F066FD06F130052349042029
:10AE840005F060FD0DF10701284604F084FB04463B
:10AE940028B11F490246012005F054FD0BE09DF83E
:10AEA4000720531EDBB2FD2B08D91A49012005F0F7
:10AEB40049FD4FF0FF34204602B070BD164903200F
:10AEC40005F040FD284604F06BFB1449042005F00E
:10AED40039FDD6F82C25D6F82815284604F0A4FB0D
:10AEE400044610B102460E49D5E7284604F022FD77
:10AEF400284604F0A9FB284604F078FB09490420FD
:10AF040005F020FDD7E700BFFA290300112A03004A
:10AF1400232A0300462A0300742A0300872A030015
:10AF2400A92A0300CB2A0300114630309AB204F058
:10AF34006ABD91B2303004F059BD10B41C46D1B290
:10AF4400019B224630305DF8044B05F0F1BA10B491
:10AF54001C46D1B2019B224630305DF8044B05F00B
:10AF6400E5BA00002DE9F04113291F4698BF334B81
:10AF74009AB098BF5D56209C88BF412580461646EE
:10AF84000021502206A806F07FF9EBB2013B202BEA
:10AF940012D8DFE803F02F2F502F111111112F2F8A
:10AFA4003311111938193E3E4E33113E11113E3CF6
:10AFB400113E1111115050002A462149022005F07A
:10AFC400C1FC1AB0BDE8F08118222146684606F09B
:10AFD40032F90C2269460AA806F02DF90C220DEB71
:10AFE40002010DA806F027F92199012210A806F004
:10AFF40022F910E00C2221460AA8F3E70422219941
:10B004000EA806F018F9102221460AA8EFE7042238
:10B01400FAE701230A9300230793D8F8083006952A
:10B02400CDE90867002BCCD0D3E9002106A89047CE
:10B03400C7E70822E8E70C22E6E700BF1D29030062
:10B044003129030008B5A1F12003012B01D8002008
:10B0540008BD1C290FD8094BCB40DA07F7D41429B3
:10B0640009D8074B23FA01F1CB0704D5303000F09F
:10B07400E3FC0028EBD16FF00A00E9E712864F16D3
:10B084000C481000052A10B412D0072A1FD0032A36
:10B0940023D14C1E202C98BF124A00F1300098BFD7
:10B0A400115D5DF8044B88BF14211A4604F092BB6D
:10B0B4004C1E202C98BF0B4A00F1300098BF115D44
:10B0C4005DF8044B88BF14211A4604F0FBBA1946F4
:10B0D40030305DF8044B04F0CCBB4FF0FF305DF82A
:10B0E400044B7047FC2803000139202998BF044B06
:10B0F40000F1300094BF595C142104F033BC00BF4C
:10B10400FC28030038B50546002421462846FFF7ED
:10B1140099FF024618B921462846FFF7E5FF013496
:10B12400412CF2D105F13000BDE8384004F00CBCEC
:10B1340038B50A490546042005F004FC2846FFF703
:10B14400E1FF04462846FFF791FE044304D022465B
:10B154000349012005F0F6FB204638BDB029030061
:10B16400C329030070B505460E46FFF76BFF04467E
:10B1740030BBA6F12003012B04D9731E012B01D986
:10B18400042E1DD195F8C0302BB10F49022005F0D3
:10B19400D9FB204670BD2846FFF7B4FF05F1300007
:10B1A40003F0E6FF00F00700072804BF012385F839
:10B1B400C030284618BF4FF0FF34FFF7B9FFE8E767
:10B1C4006FF00A04E5E700BFDE29030001392029F6
:10B1D400134698BF044A00F1300094BF525C142215
:10B1E400194604F04BBB00BFFC2803000139202999
:10B1F4004FF47A73B2FBF3F298BF044B00F13000C2
:10B2040094BF595C142104F0C9BB00BFFC2803009F
:10B21400052A7FB51D4608D0072A1FD0032A23D04C
:10B224004FF0FF35284604B070BD013920299ABF7C
:10B23400134B5E5C142600F1300401AA314620460B
:10B2440004F0C8FA2A463146204604F008FA01AA56
:10B2540005463146204604F070FAE3E719783030A9
:10B2640004F0FFFA0546DDE70139202996BF044BB7
:10B274001421595C2A46303004F05FFAF2E700BF2B
:10B28400FC2803002DE9F74F0D46934600214FF4A7
:10B29400A6620446DDF830A0019305F0F5FFD5E978
:10B2A4000263D5E90087D5F814902D690093AB1E8D
:10B2B4005D42174AC4F82CA55D4104F1300A019B94
:10B2C400C4F82835C4E9012B00214FF49F6224609F
:10B2D400504605F0D9FF009BC4E910350D4BC3F867
:10B2E40000A00123C4E90C98C4E90E7684F8A432C2
:10B2F40084F8A83284F8AC32504604F077F90C2272
:10B304000321504603B0BDE8F04F00F00CBA00BF73
:10B3140058290300B46F002030B589B00C460D499C
:10B3240002910D49039161690491A1690591E16953
:10B3340006910C99009100F10C0502A90795FFF7FD
:10B34400A1FF0FCC0FC594E80F0085E80F0009B0EA
:10B3540030BD00BF35AE020047AE020020F000430E
:10B36400402B0AD85B0003EBD073054A52F8230044
:10B37400044B002808BF184670470248704700BFB6
:10B38400E02A03002F1C03004FF6FF73A0F8DE34FD
:10B394004FF0FF33C0F8E034C0F8E434C0F8E834C8
:10B3A400C0F8EC34A0F8F0340020704730B50446FF
:10B3B40089B00D4600293DD0002A3BD0694610468D
:10B3C40002F046FB04F1A80104AA684602F085F9DC
:10B3D4001E220799059802F03FFD1E220446069995
:10B3E400049802F039FD201A40F3513028601E22DF
:10B3F400DDE9060102F030FD1E220446DDE9040108
:10B4040002F02AFD0599204440F3513068601E2261
:10B41400084602F021FD069904461E22084602F061
:10B424001BFDC4F10054241A44F35134AC600020D1
:10B4340009B030BD4FF0FF30FAE710B578B171B103
:10B444006AB113680C681B1B036053684C681B1BB0
:10B45400436093688A689B1A8360002010BD4FF094
:10B46400FF30FBE710B50B468EB00446002842D0EF
:10B47400002940D0184601A902F0EAFA05A901A85A
:10B4840002F0FCFC089805994042C913C01302F06D
:10B4940087FD400010221A49206002F0DDFC206084
:10B4A4000C980D994042C913C01302F079FD400075
:10B4B40010221349606002F0CFFC0B9960601E22D9
:10B4C400084602F0C9FCC0F1804002F055FAC113ED
:10B4D4000B98C01302F064FD4000A06010220849DC
:10B4E40002F0BAFC2368A060002B02DA03F1B47303
:10B4F4002360002001E04FF0FF300EB010BD00BF0C
:10B50400B84B39000F2938B5054614465BD00ED820
:10B51400092938D003D803295CD0204638BD0A292C
:10B5240055D00B29F9D1A5F8EA24032154E01E29AA
:10B5340063D020D8192963D01D29EED1A5F8E424BD
:10B5440000F0A7FC20B1B5F8E4349C4228BF1C46A7
:10B554002321284600F09DFC20B1B5F8E6349C4236
:10B5640028BF1C461E21284600F093FC0028D4D096
:10B57400B5F8E83423E01F2956D02329CDD1A5F806
:10B58400E6241D21DCE7A5F8DE2400F082FC20B1CE
:10B59400B5F8DE349C4228BF1C460F21284600F033
:10B5A40078FC20B1B5F8E0349C4228BF1C460A213F
:10B5B400284600F06EFC0028AFD0B5F8E2349C4277
:10B5C40028BF1C46A9E7A5F8E0240921DDE7A5F872
:10B5D400E224FAE7A5F8EC2400F05BFC20B1B5F80E
:10B5E400EC349C4228BF1C460B21284600F051FC39
:10B5F400002892D0B5F8EA34E1E7A5F8E824C0E7DA
:10B60400A5F8F02400F045FC20B1B5F8F0349C42D4
:10B6140028BF1C461F21284600F03BFC00283FF4AD
:10B624007CAFB5F8EE34CAE7A5F8EE241921E9E7B2
:10B634000F2970B5044616463CD008D80A2904D808
:10B64400092937D2032958D070BD0B29FBE71E29DD
:10B6540013D81D2915D21929F6D11921204600F035
:10B6640018FC00285CD0B4F8F0541F21204600F0E8
:10B6740010FCD0B3B4F8EE3434E01F29EDD0232904
:10B68400E2D11D21204600F004FC98B3B4F8E45440
:10B694002321204600F0FDFB20B1B4F8E6349D429E
:10B6A40028BF1D461E21204600F0F3FBE8B1B4F884
:10B6B400E83417E00921204600F0EBFBB8B1B4F8F8
:10B6C400DE540F21204600F0E4FB20B1B4F8E0344E
:10B6D4009D4228BF1D460A21204600F0DAFB20B116
:10B6E400B4F8E2349D4228BF1D463580ACE74FF6DE
:10B6F400FF75E6E74FF6FF75CAE70321204600F021
:10B70400C8FB50B1B4F8EC540B21204600F0C1FB47
:10B714000028EAD0B4F8EA34E4E74FF6FF75F3E71B
:10B724004FF6FF75A1E703290DD12523C0E9212395
:10B73400012380F88C3080F87D32FF2380F8813239
:10B7440080F8853270470023C0E9213380F88C30BB
:10B7540070472DE9F04387B003AB012240F2851115
:10B764000546D0F8846004F074FF002840F084801B
:10B77400024640F28511284604F031FF00287BD1AF
:10B784000DF10D03012240F28911284604F061FFF6
:10B79400002871D1024640F28911284604F01FFFA7
:10B7A400002869D10DF10B0301224FF4C071284622
:10B7B40004F04FFF00285FD102464FF4C0712846C1
:10B7C40004F00DFF002857D1F6B200900146312352
:10B7D4003246284600F0BCFA0446C0BBD5F888308F
:10B7E400233B012B28D81023009332463123002118
:10B7F400284600F0ADFA044648BB4FF00A0804AFEF
:10B804004FF0010943F69820FDF72AFFCDE9009790
:10B81400102332460021284600F076FA0446B0B9D7
:10B824009DF81030DB072AD408F1FF3818F0FF0820
:10B83400E8D14FF0FF340AE04023009301460C2383
:10B844003246284600F084FA04460028CBD0D5F8C6
:10B854008830233B022B07D9002100910C23324668
:10B86400284600F075FA0443002100913123324642
:10B87400284600F06DFA204307B0BDE8F0830623A4
:10B8840000930146019711233246284600F03CFA02
:10B8940004460028DBD19DF811209DF810306F6F0D
:10B8A40043EA0223D5F88820232A95F84D201BB2B9
:10B8B40002F180020CBF0720082053430341B7F96B
:10B8C40000201BB29A42B4DBA96FB1F900209A425E
:10B8D400AFDC9DF813309DF8122042EA032213B224
:10B8E40095F84E2080325A430241B7F9023012B221
:10B8F40093429EDBB1F9023093429ADC9DF8152005
:10B904009DF8143043EA02231AB295F84F3080337D
:10B9140053430341B7F904201BB29A4289DBB1F9BE
:10B9240004209A4293DD84E738B590F881300546C7
:10B9340083B1002100F0A8F901210446284600F053
:10B94400A3F9204305D1284600F0D7F9002385F850
:10B95400813038BD1846FCE730B52422044685B052
:10B964000021503005F090FC0322002104F14D0029
:10B9740005F08AFC0125002303AACDE90052E36700
:10B98400A4F8805094F884201946204600F0BCF9AD
:10B9940008BB9DF80C30482B1FD1114B63678022E4
:10B9A400104BA36784F84D20312348F28002A4F899
:10B9B4004E20009084F8823094F884202946204652
:10B9C40000F0C6F938B9022384F8815084F88C3029
:10B9D4002046FFF7A9FF05B030BD4FF0FF30FAE76E
:10B9E400283703002237030037B590F88110044646
:10B9F40001BB90F88030002B14BF5A2359230093C5
:10BA040090F8842014BF0323102300F0E2F878B9DF
:10BA14000125009594F8823094F884202946204624
:10BA240000F001F920B9204600F060F984F8815053
:10BA340003B030BD0020FBE790F88C00831E584211
:10BA4400584170472DE9F04F9BB00B788DF80830C2
:10BA54004B788DF80B308B788DF80E30CB788DF8D1
:10BA640009300B798DF80C304B798DF80F308B79C8
:10BA74008DF80A30CB798DF80D30DFF80C910B7A04
:10BA84008DF810300546144600F14D0605AF00F15F
:10BA9400500816F8010B80304946800501F0F1FE8C
:10BAA400464547F8040BF4D108AF00203E460DF19B
:10BAB400440C4FF003080346B0FBF8F101EB4101DD
:10BAC400411A1AAA02EB8101225651F8541C46F875
